:020000040800F2
:1000000000050020A1010008290F0008C50E000806
:10001000250F00089F0800082514000800000000B4
:10002000000000000000000000000000AD1000080B
:10003000490C000800000000410F0008C51100082D
:10004000BB010008BB010008BB010008BB010008A0
:10005000BB010008BB010008BB010008BB01000890
:10006000BB010008BB010008BB010008BB01000880
:10007000BB010008BB010008BB010008BB01000870
:10008000BB010008BB010008BB010008BB01000860
:10009000BB010008BB010008BB010008BB01000850
:1000A000BB010008BB010008BB010008BB01000840
:1000B000BB010008BB010008BB010008BB01000830
:1000C000BB010008BB010008BB010008BB01000820
:1000D000BB010008BB010008BB010008BB01000810
:1000E000BB010008BB010008BB010008BB01000800
:1000F000BB010008BB010008BB010008BB010008F0
:10010000BB010008BB010008BB010008BB010008DF
:10011000BB010008BB010008BB010008BB010008CF
:10012000BB010008BB010008BB010008BB010008BF
:10013000BB010008BB010008BB010008BB010008AF
:10014000BB010008BB010008BB010008BB0100089F
:10015000BB010008BB010008BB010008BB0100088F
:10016000BB010008BB010008BB010008BB0100087F
:10017000BB010008BB010008BB010008BB0100086F
:10018000BB010008BB010008DFF810D000F084FAC2
:100190000048004769210008AFF3008000050020F7
:1001A0000648804706480047FEE7FEE7FEE7FEE711
:1001B000FEE7FEE7FEE7FEE7FEE7FEE7C9110008FF
:1001C000890100082DE9FE4F804681EA0300C00F37
:1001D0000C46009021F0004123F00045B8EB0200EE
:1001E000A94105D24046214690461C460B46024690
:1001F00023F00040104347D0270DC7F30A00C3F394
:100200000A510290401A019040286BDAC3F31300A0
:1002100040F4801B0098924620B10023D2EB030AE1
:1002200063EB0B0B01985946C0F14002504600F0B9
:1002300035F906460D4650465946019A00F04DF9EB
:1002400010EB08006141002487EA115284EAE77349
:100250001A4340D0009A62B3019A012A4FEA07522A
:1002600015DC001B61EB02014FF0004202EA07526D
:10027000CDE90042001C41F5801132462B4600F0CA
:100280004DF903B0BDE8F08F40462146F9E7001B69
:1002900061EB0201001C41F5801300185B4120183E
:1002A000A2F5001747EB030140EAD570B6196D417E
:1002B00011E06D084FEA360645EAC0754FEA07526D
:1002C000001B61EB0201001C41F5801149084FEA57
:1002D00030000019514132462B4603B0BDE8F04FC3
:1002E00000F00DB90098012240000023D0EB02027B
:1002F00063EBE073009821464FEAE074B8EB00002E
:1003000061EB0401E9E783F000435BE781F0004122
:1003100058E72DE9FE4F81EA030404F0004421F080
:10032000004100944FF0000B23F0004350EA010419
:100330005ED052EA03045BD0C3F30A54C1F30A55FA
:100340002C44A4F2F3340194A0FB0254C1F3130132
:1003500041F48011C3F3130343F4801301FB0244FF
:1003600000FB034E840A970A44EA815447EA835704
:10037000A4FB076802958D0A05FB07854FEA932CBD
:1003800004FB0C542705029D4FEA065847EA16372E
:10039000B5EB08056EEB070C870E920E47EA811746
:1003A00042EA8312A7FB0201B6EB0B0164EB0004E7
:1003B0002B0D43EA0C335E1844EB1C50DA465146D1
:1003C000E7FB0201C5F313044FEA0B3343EA14536E
:1003D0004FEA0432019C43EA0603A4F10C040294A0
:1003E000009CCDE900B400F099F803B0BDE8F08FAF
:1003F00000200146F9E70EB5C10F80EAE07008441D
:10040000CA07002140F233438DE80E000A460B462E
:1004100000F084F803B000BDC1F30A5210B5C1F377
:10042000130140F2FF3341F480119A4201DA0020B7
:1004300010BD40F233439A42A2F2334203DC5242EF
:1004400000F03BF810BD904010BD00F0004230F0CD
:1004500000400AD0C10D01F56071C0F3160042EAF8
:100460000151C20840071143704700200146704700
:1004700030B50B46014600202022012409E021FA74
:1004800002F59D4205D303FA02F5491B04FA02F571
:100490002844151EA2F10102F1DC30BD202A04DB44
:1004A000203A00FA02F1002070479140C2F1200387
:1004B00020FA03F3194390407047202A04DB203AC6
:1004C00021FA02F00021704721FA02F3D040C2F174
:1004D00020029140084319467047202A06DBCB17BB
:1004E000203A41FA02F043EAE07306E041FA02F3EF
:1004F000D040C2F12002914008431946704710B520
:10050000141E73F1000408DA401C41F10001921836
:100510005B411A4301D120F0010010BD2DE9F04DDF
:1005200092469B4611B1B1FA81F202E0B0FA80F234
:1005300020329046FFF7B2FF04460F4640EA0A0019
:1005400041EA0B0153465A46084313D0114653EA79
:10055000010019D0C8F140025046FFF7AEFF054632
:100560000E46504659464246FFF798FF084305D0CD
:10057000012004E020463946BDE8F08D0020054307
:1005800046EAE0762C4337430A986305E40AA0EB79
:1005900008000022FD0A44EA47540A3002D5002030
:1005A0000146E9E7010510196941DDE9084500192F
:1005B0006941BDE8F04DA2E72DE9F04D81EA030461
:1005C00004F0004B21F0004514464FF0000A23F0E0
:1005D000004150EA050220D054EA01021DD0C5F3C3
:1005E0000A570246C5F31303C1F31300C1F30A56B9
:1005F00040F4801543F48013A7EB0608101BD64681
:1006000008F2FD3873EB050002D308F1010801E0A0
:1006100092185B41B8F1000F03DA00200146BDE8F3
:10062000F08D00204FF48011064684460EE0171B23
:1006300073EB050705D3121B63EB050306434CEA76
:10064000010C49084FEA300092185B4150EA01075B
:10065000EDD152EA030012D082EA040083EA0501D8
:10066000084305D0101BAB4106D20122002306E04F
:1006700000224FF0004302E06FF0010253101AEB2A
:1006800006004CEB085110EB0A0041EB0B01BDE8F2
:10069000F04DFFF734BF0000064C074D06E0E06860
:1006A00040F0010394E8070098471034AC42F6D3B9
:1006B000FFF76EFD88230008A82300080EB540F25E
:1006C000334102910021CDE900110A460B46FFF7A4
:1006D00025FF03B000BD70B5C1F30A5201F000451B
:1006E0000024C1F3130140F2FF3341F480119A4218
:1006F00001DA002070BD40F233439A42A2F2334245
:1007000003DC5242FFF7D9FE00E090402C43F1D0C9
:10071000404270BD21B1826842F00102826003E074
:10072000826822F001028260704700000021084ABE
:100730001168084A1140D0E900231A4383681A431C
:10074000C3681A431143044AC2F8041370470000F7
:1007500004230140E030FCFF0020014021B1826809
:1007600042F48072826003E0826822F480728260C8
:10077000704721B1826842F40072826003E08268AF
:1007800022F400728260704730B5024600200023D8
:100790005068104C20400D790C6844EA0524204331
:1007A000506090680C4C2040D1E903542C438D6874
:1007B0002C434D7944EA450420439060D06A20F4EC
:1007C00070000C7D641EE4B2234340EA0350D06203
:1007D00030BD0000FFFEFFFCFDF7FFC0F0B5044692
:1007E0000D4600200021092D11DDE068A5F10A0663
:1007F00006EB4607072606FA07F18843A5F10A0625
:1008000006EB460603FA06F10843E0600CE02069B7
:1008100005EB4507072606FA07F1884305EB450671
:1008200003FA06F108432061072A0FDA606B561EAF
:1008300006EB86071F2606FA07F18843561E06EBCD
:10084000860605FA06F10843606322E00D2A0FDAF6
:10085000206BD61F06EB86071F2606FA07F1884392
:10086000D61F06EB860605FA06F10843206310E062
:10087000E06AA2F10D0606EB86071F2606FA07F1CD
:100880008843A2F10D0606EB860605FA06F1084339
:10089000E062F0BD816841F080418160704700BF37
:1008A000FEE7000000B58FB004201E49086000205C
:1008B0004860C860102000F083F81B4800F0C0F8C2
:1008C0004FF0606000901948019019480290402054
:1008D000039064200490002005904FF480600690FF
:1008E00040000790800008904011099040020A9053
:1008F00000200B9001200C9000200D900E90694676
:10090000094800F075F90121074800F08DF8012130
:10091000102000F00FF80121102000F01FF80FB098
:1009200000BD000028000020A060024014740040B8
:100930003800002039B1084A1268012383401A4365
:10094000054B1A6006E0044A1268012383409A436B
:10095000014B1A60704700000074004041B1094A21
:1009600012684FF4805383401A43064B1A6007E025
:10097000044A12684FF4805383409A43014B1A6033
:10098000704700000074004010B50121480700F0D6
:10099000F9FA00214FF0005000F0F4FA10BD000009
:1009A0001CB53020009003208DF8040000208DF845
:1009B00007006946014800F048F91CBD00000240EC
:1009C00030B5002200230A4C226840F6FE748440B1
:1009D000A243D1E900452C438D682C43CD6844EAFD
:1009E000050303FA00F42243014C226030BD0000ED
:1009F000007400400246094B9A4201D2084801E0C7
:100A00000648103801F000531BB1064B0B40C36081
:100A100002E0044B0B40836070470000106402400A
:100A2000006002407D0F7D0F21B1026842F001029B
:100A3000026003E0026822F00102026070470000D9
:100A4000016821F0010101600021016041608160C5
:100A5000C1600161212141614A49884204D13D219F
:100A6000484A103A91608CE046491831884205D1D5
:100A70004FF47461434A103A916082E04149303149
:100A8000884205D14FF474113E4A103A916078E0E3
:100A90003C494831884205D14FF07461394A103AD7
:100AA00091606EE037496031884204D13649354A59
:100AB000103AD16065E033497831884204D1334936
:100AC000304A103AD1605CE02E499031884204D11E
:100AD0002F492C4A103AD16053E02A49A831884264
:100AE00005D14FF03D51274A103AD16049E02949DC
:100AF000884204D13D21274A083A116041E0254946
:100B00001831884205D14FF47461224A083A1160C5
:100B100037E020493031884205D14FF474111D4A25
:100B2000083A11602DE01B494831884205D14FF049
:100B30007461184A083A116023E01649603188420E
:100B400004D11149134A121F11601AE0114978317A
:100B5000884204D10D490F4A121F116011E00D495E
:100B60009031884204D10A490A4A121F116008E0F4
:100B70000849A831884204D14FF03D51054A121F5F
:100B800011607047106002403D000020400F0020BF
:100B900000003D2010640240014600200A6802F077
:100BA00001020AB1012000E00020704730B5034681
:100BB0000A46002000240B4DAB4201D20A4901E055
:100BC0000849103902F000550DB14C6800E00C687E
:100BD000064D2C4004EA02050DB1012000E0002082
:100BE00030BD000010640240006002407D0F7D0FA8
:100BF00010B500220268134B1A40CC680B682343DF
:100C00004C6923438C692343CC6923430C6A2343F7
:100C10004C6A23438C6A23434C6B23438C6B2343E2
:100C20001A430260426922F00702D1E90B342343E0
:100C30001A4342610B6943604B6883608B68C360F1
:100C400010BD00003F801CF07047F0B50A4600213F
:100C50000023002400BF3DE0012505FA01F31568DB
:100C600005EA03049C4234D105684F000326BE40C8
:100C7000B543056015794E00B540066835430560FB
:100C80001579012D02D01579022D16D185684F00F6
:100C90000326BE40B543856055794E00B540866851
:100CA00035438560456801268E40B54345604568FB
:100CB00096798E40B6B235434560C5684F0003262D
:100CC000BE40B543C560D5794E00B540C6683543D2
:100CD000C560491C1029BFD3F0BDF0B50023002426
:100CE0004D07ED0E02FA05F3CE1000F1200555F880
:100CF00026504E07F70E0F26BE40B543CF1000F129
:100D0000200646F82750CE1000F1200555F8265051
:100D100045EA0304CE1000F1200545F82640F0BD59
:100D200041837047018370472DE9F0412DED0C8B15
:100D300080460D4617460024B8F1010F06D0B8F1E1
:100D4000020F44D0B8F1030F6AD15BE09FED378A00
:100D5000002439E000EE104AB8EEC00A28EE000A7E
:100D600010EE101A0846FFF770FB41EC1D0BB0EEB9
:100D70004D0AF0EE6D0A00F07FFBB0EE40CAF0EED7
:100D800060CA9FED2B0B53EC102B51EC1C0BFFF7A3
:100D900019FA41EC1A0B2846FFF72DFB41EC1C0B0E
:100DA0009FED250B53EC102BFFF7B3FA41EC1B0B17
:100DB00053EC1A2BFFF7ADFA41EC190BFFF72CFBA4
:100DC00027F81400601C04B2642CC3DB28E0322630
:100DD000002407E004FB05F090FBF6F027F8140070
:100DE000601C04B2B442F5DB344608E0A01B684343
:100DF00090FBF6F0281A27F81400601C04B2642C4B
:100E0000F4DB0DE0002408E005FB04F0642190FB16
:100E1000F1F027F81400601C04B2642CF4DB00BF6E
:100E200000BFBDEC0C8BBDE8F0810000F5AD803D4E
:100E3000000000000000F03F000000000000E03F64
:100E400010B510491048FFF7B1FED0B10F48018826
:100E50000FA000F0E9FA0D48418810A000F0E4FA74
:100E60000A48818810A000F0DFFA0848C18811A064
:100E700000F0DAFA12A000F0D7FA02490248FFF7B0
:100E8000B9FD10BD200000101064024000000020D9
:100E9000616463363D25642020000000616463378F
:100EA0003D25642020000000616463343D256420FA
:100EB00020000000616463353D25642020000000AF
:100EC0000D0A000000BFFEE71CB50121084600F036
:100ED00039F84FF40040009001208DF80400002004
:100EE0008DF8060003208DF8050001208DF807001D
:100EF00069460448FFF7A9FE4FF400410148FFF797
:100F000011FF1CBD0000024010B50121084600F091
:100F100019F80121480700F025F80121480500F0E3
:100F200011F810BD00BFFEE7704700000249014301
:100F3000024A1160704700000000FA050CED00E065
:100F40007047000029B1064A12680243044B1A6038
:100F500004E0034A12688243014B1A6070470000A4
:100F60003038024029B1064A12680243044B1A6025
:100F700004E0034A12688243014B1A607047000084
:100F80004038024029B1064A12680243044B1A60F5
:100F900004E0034A12688243014B1A607047000064
:100FA0002038024029B1064A12680243044B1A60F5
:100FB00004E0034A12688243014B1A607047000044
:100FC00044380240F0B5002100220024022500260A
:100FD0000223324F3F6807F00C0121B1042905D0EC
:100FE000082937D105E02E4F076036E02D4F076006
:100FF00033E02A4F3F1F3F68C7F38056274F3F1FFC
:101000003F6807F03F036EB1264FB7FBF3F7DFF8F9
:101010008CC0ACF1040CDCF800C0CCF3881C07FBDE
:101020000CF40CE01E4FB7FBF3F7DFF870C0ACF127
:10103000040CDCF800C0CCF3881C07FB0CF4174F41
:101040003F1F3F68C7F301477F1C7D00B4FBF5F7E6
:10105000076002E0124F076000BF00BF0F4F3F68FC
:1010600007F0F0010909104F7A5C0768D740476024
:101070000A4F3F6807F4E051890A0B4F7A5C4768D2
:10108000D7408760054F3F6807F46041490B064F22
:101090007A5C4768D740C760F0BD0000083802405E
:1010A0000024F40000127A001400002070470000B1
:1010B0000CB50020019000903448006840F4803066
:1010C0003249086000BF3148006800F400300090E9
:1010D0000198401C0190009818B90198B0F5A04FF4
:1010E000F1D12A48006800F4003010B101200090CE
:1010F00001E0002000900098012846D123484030AC
:10110000006840F080502149403108602048006864
:1011100040F440401E4908601C48083000681B49E4
:10112000083108600846006840F40040086008463E
:10113000006840F4A05008601648091F0860081FA6
:10114000006840F08070091F086000BF0F48006809
:1011500000F000700028F9D040F205700E490860D8
:101160000A480830006820F0030008490831086088
:101170000846006840F00200086000BF03480830DD
:10118000006800F00C000828F8D10CBD00380240BF
:101190000070004008544007003C0240042808D179
:1011A0004FF0E021096941F004014FF0E0221161A4
:1011B00007E04FF0E021096921F004014FF0E0223F
:1011C000116170477047000010B51548006840F481
:1011D0007000134908601348006840F0010011498D
:1011E000086000200F49083108600E4800680E4969
:1011F00008400C4908600D48091D0860081F006878
:1012000020F48020091F0860002006490C31086086
:10121000FFF74EFF4FF0006001498039086010BDB4
:1012200088ED00E000380240FFFFF6FE1030002499
:101230000EB501211020FFF795FE684600F072F808
:1012400040F6C90001900020ADF80000ADF808009C
:10125000ADF802006946064800F022F82021044853
:1012600000F014F80121024800F004F80EBD00005F
:101270000010004021B1028842F00102028004E027
:1012800002884FF6FE731A400280704782884FF63C
:101290008F731A40828082880A43828070470000E0
:1012A00000220288184B98420ED0184B98420BD05F
:1012B000B0F1804F08D0164B984205D0154B98429C
:1012C00002D0154B984204D14FF68F731A404B88C9
:1012D0001A43124B984207D0114B984204D04FF654
:1012E000FF431A400B891A4302804B68C3620B8884
:1012F0000385054B984202D0044B984201D18B7A6A
:1013000003860123838270470000014000040140EE
:101310000004004000080040000C004000100040A5
:10132000001400404FF0FF31416000210180018135
:1013300041808172704721B1828942F400528281DA
:1013400004E082894DF6FF731A40828170470000E5
:101350002DE9FF4705460E460024A14600BFA046E2
:10136000B08900B100BF2C8A24F44054F0880443B3
:101370002C82AC8941F20C608443B08831890843E7
:10138000718908430443AC81AC8A24F44074B08969
:101390000443AC826846FFF715FE2048854202D020
:1013A0001F48854202D1DDF80C9001E0DDF808907D
:1013B000A88900F4004040B109EBC90000EB091016
:1013C00031684900B0FBF1F707E009EBC90000EB19
:1013D000091031688900B0FBF1F76420B7FBF0F029
:1013E00004012009642101FB1078A88900F4004061
:1013F00040B1322000EBC800B0FBF1F000F0070074
:10140000044308E0322000EB08106421B0FBF1F047
:1014100000F00F0004432C81BDE8FF87001001405D
:101420000014014000BFFEE70FB4054B10B503A93F
:10143000044A029800F0AEFC10BC5DF814FB0000FA
:101440004D2100081000002003B4019841000098CD
:1014500050EAC12018BF04204A0D18BF40F0010017
:1014600040F2FF72B2EB515F08BF40F0020001286A
:1014700008BF052002B0704710B52F499FED2C1B07
:101480002DED020B84B0059820F000408842DCBFAF
:1014900000209DED040B32DD2849884209D10498D3
:1014A00040B94FF0010000F06FFC00F03DFC06B0C9
:1014B00010BD05DB9DED040B00F02AFC06B010BD4D
:1014C00068469DED040B00F03BF810F0030011D0CE
:1014D000012818D09DED021B9DED000B02281AD0AB
:1014E00000F04AFA51EC100B81F0004106B041ECDB
:1014F000100B10BD9DED021B9DED000B012000F0B7
:101500006FFB06B010BD9DED021B9DED000B00F0C2
:1015100033FA06B010BD012000F062FB51EC100B55
:1015200081F0004106B041EC100B10BD000000003E
:101530000000000000000000FB21E93F0000F07FF8
:101540002DE9F14F04462DED020B2DED088B8AB0ED
:101550009FEDE70B80ED020B139EE74826F0004558
:1015600085420ADC9DED120B002084ED000B0AB0D1
:10157000BDEC088B03B0BDE8F08FE0489FEDE0AB19
:101580009FEDE1BBA84247DDE14F9FEDE39B9FED5F
:10159000E48B9DED120B53EC1A2B51EC100B002E2B
:1015A0001CDDFEF7B0FE41EC100BBD4208D053EC41
:1015B0001B2B51EC100BFEF7A6FEC4E900010BE05B
:1015C00053EC192B51EC100BFEF79DFE53EC182B2E
:1015D000FEF799FEC4E900010120C8E7FEF7F2FD1D
:1015E00041EC100BBD4208D053EC1B2B51EC100BFF
:1015F000FEF7E8FDC4E900010BE053EC192B51ECB8
:10160000100BFEF7DFFD53EC182BFEF7DBFDC4E9F2
:1016100000014FF0FF30AAE7C348A84279DB9DEDF7
:10162000120B51EC100B00F085FD41EC180B9FEDF7
:10163000C00B53EC102BFEF76CFE9FEDBF1B53EC61
:10164000112BFEF7BFFDFFF746F80746FEF7D3FE66
:1016500041EC190B53EC1A2BFEF75BFE53EC182BE5
:10166000FEF754FE41EC180B53EC1B2B51EC190BFD
:10167000FEF74FFEDFF8C8A241EC100B4FEA1558F9
:101680000125FA4453EC102B51EC180BFEF73BFEEE
:10169000032DC4E900013DD0C1F30A5005EB45110B
:1016A000A8EB00001139814234DA0AEB051BB0EED9
:1016B00048AA9BED000BF0EE68AA53EC102B51ECFE
:1016C000190BFEF726FE41EC1B0B51EC1A0B53ECE9
:1016D0001B2BFEF718FE41EC180B51EC1A0B53ECC8
:1016E000182BFEF710FE53EC1B2BFEF70CFE9BEDA8
:1016F000020B41EC1A0B53EC102B51EC190BFEF7BB
:1017000008FE53EC1A2BFEF7FEFD41EC100B6D1C8E
:10171000B8E70EE0002EA8BF3846BFF628AF94ED1C
:10172000000B51EC100B81F00041C4E9000178423C
:101730001DE7C6F3130040F4801EC6F30A50A0F262
:10174000F530471100F01F05C5F12000DDF848B065
:1017500008900020069007900520EC467949002D5E
:1017600007EB0002794408BF51F8221009D051F864
:10177000223001EB8201AB404A68089922FA01F15C
:101780001943A1FB0E26A1FB0B131A449A4234BF46
:101790000123002303EB06080CEB8003D3E901A629
:1017A0000E448E4234BF0121002192448A4411B17B
:1017B000924502D903E0924501D2012100E00021C7
:1017C000C3E901A641444CF82010011EA0F101001C
:1017D000C4DC029800F10050850F0298DDE9036730
:1017E0008000DDF81480FEF706FE41EC1A0B30464F
:1017F000FEF764FF9FED541B53EC112BFEF789FDA0
:1018000041EC1B0B3846FEF759FF9FED511B53EC83
:10181000112BFEF77EFD41EC180B4046FEF74EFF04
:101820009FED4D1B53EC112BFEF773FD41EC190B93
:1018300051EC180B53EC192BFEF7C4FC53EC1B2B8B
:10184000FEF7C0FC53EC1A2BFEF7BCFCCDE90801F7
:10185000002008909DED080B53EC1A2B51EC100B57
:10186000FEF751FD53EC1B2BFEF74DFD53EC182BEF
:10187000FEF749FD53EC192BFEF748FD9FED381B91
:1018800053EC112BFEF745FD9FED370B41EC180B88
:1018900053EC102B9DED080B51EC100BFEF739FDAE
:1018A00053EC182BFEF78EFC9FED310B41EC180B1F
:1018B00053EC102B9DED080B51EC100BFEF729FD9E
:1018C00053EC182BFEF77EFC41EC100B139810F034
:1018D000004F06D06D4251EC100B81F0004141ECFD
:1018E000100B284684ED000B41E6000000000000CC
:1018F0000000000000000000FB21E93F7CD902400D
:1019000000004054FB21F93F3163621A61B4D03DBD
:10191000FB21F93F000000000000601A61B4D03DD7
:101920007370032E8A19A33BFB213941000000008C
:1019300083C8C96D305FE43F000000000000E03F55
:10194000120C0000600B0000000000000000103EC0
:10195000000000000000103C000000000000103AF1
:10196000182D4454FB21F93D3326A611460B113C9A
:1019700000000054FB21F93D10B52DED040B2DEDB9
:10198000088B82B0B0EE419AF0EE619A0B9820F08D
:1019900000449FED4BABB4F1795F11DA9DED0A0B7A
:1019A00051EC100BFEF797FE002801BFB0EE4A0A7B
:1019B000F0EE6A0A02B0BDEC088B04BF04B010BDA3
:1019C0009DED0A0B53EC102B51EC100BFEF7A1FC14
:1019D00041EC180B3C480621B0EE480AF0EE680ACC
:1019E000784400F081F853EC182B51EC100BFEF703
:1019F00090FC9DED0A0B41EC1B0B53EC192B51ECA9
:101A0000100BFEF786FC41EC190B53EC1B2B51EC31
:101A1000180BFEF77EFC53EC192BFEF774FC9FEDC0
:101A20002C0B41EC190B53EC102B51EC180BFEF75F
:101A300070FC41EC100B2848844210DA53EC192B4F
:101A400051EC100BFEF75FFC53EC1A2BFEF75EFC1B
:101A500041EC100B02B0BDEC088B04B010BD1F4868
:101A6000A042BCBF9FED1E1B8DED001B06DBA4F545
:101A700000100190002000909DED001B51EC100B18
:101A800053EC112BFEF73FFC9DED000B41EC180BC6
:101A900053EC102B51EC1A0BFEF735FC41EC1A0BF2
:101AA00053EC192B51EC180BFEF72DFC53EC1A2BB1
:101AB000FEF72CFC41EC100BCCE70000000000000E
:101AC000000000000000F03F84080000000000005B
:101AD000000000000000E03F3333D33F0000E93F47
:101AE000000000000000D23F70B504462DED028BCF
:101AF0004D1E00EBC500B0EE408AF0EE608A90ED1E
:101B0000000B35F0060017D053EC182B51EC100BDE
:101B1000FEF7FFFB41EC100B6D1E04EBC50090EDD2
:101B2000001B51EC100B53EC112BFEF74BFB41EC5F
:101B3000100B35F00600E7D1022D36D0042D1CD055
:101B4000062D1CBFBDEC028B70BD53EC182B51EC65
:101B5000100BFEF7DEFB94ED0A1B53EC112BFEF786
:101B600031FB53EC182BFEF7D4FB94ED081B53EC20
:101B7000112BFEF727FB41EC100B53EC182B51EC0B
:101B8000100BFEF7C6FB94ED061B53EC112BFEF772
:101B900019FB53EC182BFEF7BCFB94ED040B53EC34
:101BA000102BFEF70FFB41EC100B53EC182B51ECF4
:101BB000100BFEF7AEFB94ED021B53EC112BFEF75E
:101BC00001FB53EC182BFEF7A4FB94ED001B53EC28
:101BD000112BFEF7F7FABDEC028B41EC100B70BD38
:101BE00031B504462DED040B2DED0A8BB0EE41BA54
:101BF000F0EE61BA0B989DED0A0B20F00040B0F1B9
:101C0000795F0DDA51EC100BFFF71EFC042808BFBA
:101C100000F09AF89DED0A0BBDEC0A8B05B030BDC3
:101C200053EC102B51EC100BFEF773FB41EC180B2F
:101C30009DED0A0B53EC182B51EC100BFEF769FBD2
:101C400041EC190B2C48B0EE480AF0EE680A052169
:101C50007844FFF749FF9FED2ACBB0EE40AAF0EEA3
:101C600060AA9CB353EC1C2B51EC190BFEF751FBF3
:101C700041EC1C0B53EC1A2B51EC190BFEF749FBF2
:101C80009FED210B41EC190B53EC102B51EC1B0B6E
:101C9000FEF73FFB53EC192BFEF735FB53EC182BEB
:101CA000FEF737FB53EC1B2BFEF72DFB53EC1C2BE5
:101CB000FEF729FB9DED0A1B53EC112BFEF726FBCB
:101CC000BDEC0A8B05B041EC100B30BDFFE753ECC7
:101CD0001A2B51EC180BFEF71CFB53EC1C2BFEF7D8
:101CE00071FA53EC192BFEF714FB9DED0A1B53EC14
:101CF000112BFEF767FAE3E70C0700000000000075
:101D0000495555555555C5BF000000000000E03F3E
:101D100010B553EC102B51EC100BFEF753FA41ECBD
:101D2000100B10BD000000009FED050B10B553EC2B
:101D3000102B51EC100BFEF73FFC41EC100B10BDCB
:101D400000000000000000009FED050B10B553ECF3
:101D5000102B51EC100BFEF7DCFA41EC100B10BD10
:101D6000000000000000001002E008C8121F08C1B7
:101D7000002AFAD170477047002001E001C1121F0C
:101D8000002AFBD17047000001490860704700003D
:101D9000240000202DE9FF4F89B09B460446002512
:101DA00006E025280BD05A460B999047641C6D1C01
:101DB00020780028F5D10DB02846BDE8F08F002727
:101DC000B8460122474900E0074314F8013F203B91
:101DD00002FA03F00842F7D120782E2819D114F81E
:101DE000010F47F004072A280ED06FF02F02207849
:101DF000A0F1300109290CD808EB880102EB410160
:101E000000EB0108641CF2E70A98641C50F8048B8C
:101E10000A9020780028CED0642808D0692806D0FF
:101E200075281ED05A460B9990476D1C58E00A99A8
:101E30004FF00A0901C90A91002802DA40422D2117
:101E400002E0390504D52B218DF82010012103E093
:101E5000F90704D02021F7E78A4608AE0DE00021FB
:101E6000FAE70A994FF00A0901C90A91F7E74946CA
:101E7000FEF7FEFA303106F8011D0028F7D1ADEB70
:101E8000060000F12009780701D44FF00108C84589
:101E900002DDA8EB090000E000208046002706E0F4
:101EA00008A85A46C05D0B9990476D1C7F1C57458A
:101EB000F6DB04E030205A460B9990476D1CB8F1D0
:101EC0000001A8F10108F5DC05E016F8010B5A46FF
:101ED0000B9990476D1CB9F10001A9F10109F4DCDF
:101EE000641C65E70928010000B58DB00121084692
:101EF000FFF728F801210420FFF724F80121080248
:101F0000FFF750F800F07CF803208DF83000102027
:101F10000B9000208DF833000BA93648FEF795FE94
:101F200003208DF8300020200B9000208DF8330026
:101F30000BA93048FEF789FE03208DF830004020C1
:101F40000B9000208DF833000BA92B48FEF77DFE87
:101F500003208DF8300080200B9000208DF8330096
:101F60000BA92548FEF771FE0020099007904FF459
:101F70008030089000200A9007A8FEF7D7FB0020C9
:101F8000019001208DF808008DF8090000200390D1
:101F9000059004208DF8180001A91848FEF7F4FBFD
:101FA00001211648FEF7B6FB072303220E21134832
:101FB000FEF714FC072304220F211048FEF70EFC45
:101FC0000723012206210D48FEF708FC0723022201
:101FD00019460A48FEF702FC0848FEF75BFC01219F
:101FE0000648FEF7C6FB01210448FEF7B7FB0DB01B
:101FF00000BD000000080240000002400020014037
:1020000000B58FB001218805FEF79CFF00BF164880
:10201000FEF7C2FD0028FAD1009014480190144840
:1020200002900020039004200490002005904FF4BB
:1020300080600690400007908000089000010A90A0
:102040004012099000200B9001200C9000200D9070
:102050000E9069460448FEF7CBFD01210248FEF7C9
:10206000E3FC0FB000BD0000106402404C200140B2
:102070000000002010B504466FF00400FFF78EF852
:10208000E11704EB5171C1F3C701074A1170104603
:10209000007800EB4001C1EBC0104FF6FF7101EA80
:1020A000C0000249088010BD080000200A0000207E
:1020B00070B504464FF4077094FBF0F0C6B24FF4CD
:1020C000077094FBF0F100FB114085B205E04FF47E
:1020D000077000F009F8701EC6B2002EF7D115B1D6
:1020E000284600F001F870BD0146114A12884A43A3
:1020F0004FF0E0235A6100229A611A46126942F0B9
:1021000001021A6100BF4FF0E022106900F00102E5
:102110001AB100F48032002AF5D04FF0E0221269A3
:1021200022F001024FF0E0231A6100229A61704709
:102130000A00002082B0CDE9000121F000400190AA
:102140009DED000B02B051EC100B704700BF054A2B
:10215000128802F04002002AF9D0C2B2014B9A80E4
:1021600070470000001001404FF4A060FEF7DEFE53
:10217000A820FFF77FFF4FF4E13000F033F8FEF7BF
:10218000A3FE14A0FFF750F9FFF7AEFEFEF7BCFE6A
:10219000FEF706FCFFF74CF8FEF7F6FBFEF782FBB6
:1021A0000E4A40F6FF710120FEF7BEFD11E04FF42C
:1021B00000410B48FEF7B6FDC820FFF779FF4FF44A
:1021C00000410748FEF7ACFDC820FFF771FFFEF79E
:1021D00037FEECE74553540D0A000000380000209C
:1021E0000000024010B586B0044601210846FEF703
:1021F000A9FE01211020FEF7D5FE0722092118486B
:10220000FEF76BFD07220A211548FEF766FD4FF425
:10221000C060049002208DF814008DF81500002095
:102220008DF8160001208DF8170004A90C48FEF760
:102230000CFD00940020ADF80400ADF80600ADF8E8
:102240000800ADF80C000C20ADF80A0069460548FE
:10225000FFF77EF801210348FFF76DF806B010BDC7
:1022600000000240001001404C5555555555A53F02
:102270007751C1166CC156BF9015CB19A001FA3E1B
:10228000AD529C804F7E92BEC4B1B4BD9EEE213E45
:10229000D43888BEE9FAA8BD00004054FB21F93FBC
:1022A0003163621A61B4D03D0000601A61B4D03D60
:1022B0007370032E8A19A33B0000002E8A19A33BDA
:1022C000C14920259A837B390000000000000000EE
:1022D0006E83F9A22915444ED15727FCC0DD34F591
:1022E000999562DB4190433CAB6351FE61C5BBDE17
:1022F0003A6E24B7E0D24D42EA2E49061C92D1092B
:102300001CEB1DFE3EA729B1F53582E88444BB2EA7
:1023100026709CE9417E5FB439D69139F4395383F4
:102320008B5F849C3B28F9BDFF97F81F0F9805DE53
:102330008B112FEF1F6D0A5ACF7E366DB709CB2751
:10234000663F464F2DEA5F9EC7BA27757BF1E5EBE6
:10235000F739073DEA92528AB15FFB6B085D8D1F2A
:10236000A6F810111111813FD561C119A0012ABF32
:102370007DFEB157E31DC73EEB9C2B8AE6E55ABEB6
:102380007CD5CF5A3AD9E53DA823000800000020AB
:1023900028000000681D0008D02300082800002045
:1023A000D8040000781D00080000000000000000B4
:1023B000000000000000000000000000000000001D
:1023C00001020304010203040607080900000000DB
:040000050800018965
:00000001FF
